{
  "_format": "hh-sol-artifact-1",
  "contractName": "LotteryV2",
  "sourceName": "contracts/LotteryV2.sol",
  "abi": [
    {
      "inputs": [
        {
          "internalType": "uint64",
          "name": "subscriptionId",
          "type": "uint64"
        },
        {
          "internalType": "address",
          "name": "_VRFCoordinatorAddress",
          "type": "address"
        },
        {
          "internalType": "bytes32",
          "name": "_keyHash",
          "type": "bytes32"
        }
      ],
      "stateMutability": "nonpayable",
      "type": "constructor"
    },
    {
      "inputs": [
        {
          "internalType": "address",
          "name": "caller",
          "type": "address"
        }
      ],
      "name": "Lottery__CallerDidNotWinALottery",
      "type": "error"
    },
    {
      "inputs": [
        {
          "internalType": "address",
          "name": "caller",
          "type": "address"
        }
      ],
      "name": "Lottery__CallerHasNoProfits",
      "type": "error"
    },
    {
      "inputs": [
        {
          "internalType": "address",
          "name": "requester",
          "type": "address"
        }
      ],
      "name": "Lottery__CurrentlyNoLotteryRunning",
      "type": "error"
    },
    {
      "inputs": [
        {
          "internalType": "address",
          "name": "sender",
          "type": "address"
        },
        {
          "internalType": "uint256",
          "name": "valueSend",
          "type": "uint256"
        }
      ],
      "name": "Lottery__DidNotPayExactEntryPrice",
      "type": "error"
    },
    {
      "inputs": [
        {
          "internalType": "address",
          "name": "caller",
          "type": "address"
        },
        {
          "internalType": "uint256",
          "name": "valueSend",
          "type": "uint256"
        }
      ],
      "name": "Lottery__FailedSendingEther",
      "type": "error"
    },
    {
      "inputs": [
        {
          "internalType": "uint256",
          "name": "timestamp",
          "type": "uint256"
        }
      ],
      "name": "Lottery__LotteryCannotBeEnteredAtThisPointOfTime",
      "type": "error"
    },
    {
      "inputs": [
        {
          "internalType": "address",
          "name": "caller",
          "type": "address"
        }
      ],
      "name": "Lottery__LotteryHasNoWinnerYet",
      "type": "error"
    },
    {
      "inputs": [
        {
          "internalType": "address",
          "name": "have",
          "type": "address"
        },
        {
          "internalType": "address",
          "name": "want",
          "type": "address"
        }
      ],
      "name": "OnlyCoordinatorCanFulfill",
      "type": "error"
    },
    {
      "anonymous": false,
      "inputs": [
        {
          "indexed": true,
          "internalType": "address",
          "name": "from",
          "type": "address"
        },
        {
          "indexed": true,
          "internalType": "address",
          "name": "to",
          "type": "address"
        }
      ],
      "name": "OwnershipTransferRequested",
      "type": "event"
    },
    {
      "anonymous": false,
      "inputs": [
        {
          "indexed": true,
          "internalType": "address",
          "name": "from",
          "type": "address"
        },
        {
          "indexed": true,
          "internalType": "address",
          "name": "to",
          "type": "address"
        }
      ],
      "name": "OwnershipTransferred",
      "type": "event"
    },
    {
      "anonymous": false,
      "inputs": [
        {
          "indexed": false,
          "internalType": "uint256",
          "name": "requestId",
          "type": "uint256"
        },
        {
          "indexed": false,
          "internalType": "uint256[]",
          "name": "randomWords",
          "type": "uint256[]"
        }
      ],
      "name": "RequestFulfilled",
      "type": "event"
    },
    {
      "anonymous": false,
      "inputs": [
        {
          "indexed": false,
          "internalType": "uint256",
          "name": "requestId",
          "type": "uint256"
        },
        {
          "indexed": false,
          "internalType": "uint32",
          "name": "numWords",
          "type": "uint32"
        }
      ],
      "name": "RequestSent",
      "type": "event"
    },
    {
      "anonymous": false,
      "inputs": [
        {
          "indexed": true,
          "internalType": "uint256",
          "name": "time",
          "type": "uint256"
        }
      ],
      "name": "newLotteryStarted",
      "type": "event"
    },
    {
      "anonymous": false,
      "inputs": [
        {
          "indexed": true,
          "internalType": "address",
          "name": "newEntry",
          "type": "address"
        },
        {
          "indexed": true,
          "internalType": "uint256",
          "name": "time",
          "type": "uint256"
        }
      ],
      "name": "newParticipant",
      "type": "event"
    },
    {
      "anonymous": false,
      "inputs": [
        {
          "indexed": true,
          "internalType": "uint256",
          "name": "newPrice",
          "type": "uint256"
        }
      ],
      "name": "priceChange",
      "type": "event"
    },
    {
      "anonymous": false,
      "inputs": [
        {
          "indexed": true,
          "internalType": "uint256",
          "name": "newTime",
          "type": "uint256"
        }
      ],
      "name": "timeChange",
      "type": "event"
    },
    {
      "anonymous": false,
      "inputs": [
        {
          "indexed": true,
          "internalType": "address",
          "name": "_winner",
          "type": "address"
        },
        {
          "indexed": true,
          "internalType": "uint256",
          "name": "totalWinning",
          "type": "uint256"
        },
        {
          "indexed": true,
          "internalType": "uint256",
          "name": "time",
          "type": "uint256"
        }
      ],
      "name": "winnerHasBeenChosen",
      "type": "event"
    },
    {
      "stateMutability": "payable",
      "type": "fallback"
    },
    {
      "inputs": [],
      "name": "acceptOwnership",
      "outputs": [],
      "stateMutability": "nonpayable",
      "type": "function"
    },
    {
      "inputs": [],
      "name": "chooseWinner",
      "outputs": [],
      "stateMutability": "nonpayable",
      "type": "function"
    },
    {
      "inputs": [],
      "name": "currentState",
      "outputs": [
        {
          "internalType": "enum LotteryV2.lotteryState",
          "name": "",
          "type": "uint8"
        }
      ],
      "stateMutability": "view",
      "type": "function"
    },
    {
      "inputs": [],
      "name": "endTime",
      "outputs": [
        {
          "internalType": "uint256",
          "name": "",
          "type": "uint256"
        }
      ],
      "stateMutability": "view",
      "type": "function"
    },
    {
      "inputs": [],
      "name": "enterPool",
      "outputs": [],
      "stateMutability": "payable",
      "type": "function"
    },
    {
      "inputs": [
        {
          "internalType": "uint256",
          "name": "newPrice",
          "type": "uint256"
        }
      ],
      "name": "entryPriceInWei",
      "outputs": [],
      "stateMutability": "nonpayable",
      "type": "function"
    },
    {
      "inputs": [],
      "name": "getArrayLength",
      "outputs": [
        {
          "internalType": "uint256",
          "name": "length",
          "type": "uint256"
        }
      ],
      "stateMutability": "view",
      "type": "function"
    },
    {
      "inputs": [],
      "name": "getBalance",
      "outputs": [
        {
          "internalType": "uint256",
          "name": "contractBalance",
          "type": "uint256"
        }
      ],
      "stateMutability": "view",
      "type": "function"
    },
    {
      "inputs": [],
      "name": "lastRequestId",
      "outputs": [
        {
          "internalType": "uint256",
          "name": "",
          "type": "uint256"
        }
      ],
      "stateMutability": "view",
      "type": "function"
    },
    {
      "inputs": [],
      "name": "lotteryProfitsWithdraw",
      "outputs": [],
      "stateMutability": "nonpayable",
      "type": "function"
    },
    {
      "inputs": [],
      "name": "owner",
      "outputs": [
        {
          "internalType": "address",
          "name": "",
          "type": "address"
        }
      ],
      "stateMutability": "view",
      "type": "function"
    },
    {
      "inputs": [
        {
          "internalType": "uint256",
          "name": "",
          "type": "uint256"
        }
      ],
      "name": "participants",
      "outputs": [
        {
          "internalType": "address payable",
          "name": "",
          "type": "address"
        }
      ],
      "stateMutability": "view",
      "type": "function"
    },
    {
      "inputs": [],
      "name": "price",
      "outputs": [
        {
          "internalType": "uint256",
          "name": "",
          "type": "uint256"
        }
      ],
      "stateMutability": "view",
      "type": "function"
    },
    {
      "inputs": [],
      "name": "randomResult",
      "outputs": [
        {
          "internalType": "uint256",
          "name": "",
          "type": "uint256"
        }
      ],
      "stateMutability": "view",
      "type": "function"
    },
    {
      "inputs": [
        {
          "internalType": "uint256",
          "name": "requestId",
          "type": "uint256"
        },
        {
          "internalType": "uint256[]",
          "name": "randomWords",
          "type": "uint256[]"
        }
      ],
      "name": "rawFulfillRandomWords",
      "outputs": [],
      "stateMutability": "nonpayable",
      "type": "function"
    },
    {
      "inputs": [
        {
          "internalType": "uint256",
          "name": "",
          "type": "uint256"
        }
      ],
      "name": "requestIds",
      "outputs": [
        {
          "internalType": "uint256",
          "name": "",
          "type": "uint256"
        }
      ],
      "stateMutability": "view",
      "type": "function"
    },
    {
      "inputs": [
        {
          "internalType": "uint256",
          "name": "",
          "type": "uint256"
        }
      ],
      "name": "s_requests",
      "outputs": [
        {
          "internalType": "bool",
          "name": "fulfilled",
          "type": "bool"
        },
        {
          "internalType": "bool",
          "name": "exists",
          "type": "bool"
        }
      ],
      "stateMutability": "view",
      "type": "function"
    },
    {
      "inputs": [],
      "name": "s_totalCurrentPool",
      "outputs": [
        {
          "internalType": "uint256",
          "name": "",
          "type": "uint256"
        }
      ],
      "stateMutability": "view",
      "type": "function"
    },
    {
      "inputs": [
        {
          "internalType": "uint256",
          "name": "newTime",
          "type": "uint256"
        }
      ],
      "name": "settingTimeInSeconds",
      "outputs": [],
      "stateMutability": "nonpayable",
      "type": "function"
    },
    {
      "inputs": [],
      "name": "startNewLottery",
      "outputs": [],
      "stateMutability": "nonpayable",
      "type": "function"
    },
    {
      "inputs": [],
      "name": "startTime",
      "outputs": [
        {
          "internalType": "uint256",
          "name": "",
          "type": "uint256"
        }
      ],
      "stateMutability": "view",
      "type": "function"
    },
    {
      "inputs": [],
      "name": "time",
      "outputs": [
        {
          "internalType": "uint256",
          "name": "",
          "type": "uint256"
        }
      ],
      "stateMutability": "view",
      "type": "function"
    },
    {
      "inputs": [
        {
          "internalType": "address",
          "name": "to",
          "type": "address"
        }
      ],
      "name": "transferOwnership",
      "outputs": [],
      "stateMutability": "nonpayable",
      "type": "function"
    },
    {
      "inputs": [],
      "name": "winner",
      "outputs": [
        {
          "internalType": "address payable",
          "name": "",
          "type": "address"
        }
      ],
      "stateMutability": "view",
      "type": "function"
    },
    {
      "inputs": [
        {
          "internalType": "address",
          "name": "",
          "type": "address"
        }
      ],
      "name": "winners",
      "outputs": [
        {
          "internalType": "uint256",
          "name": "",
          "type": "uint256"
        }
      ],
      "stateMutability": "view",
      "type": "function"
    },
    {
      "inputs": [
        {
          "internalType": "address payable",
          "name": "_receiver",
          "type": "address"
        }
      ],
      "name": "withdrawPrice",
      "outputs": [],
      "stateMutability": "nonpayable",
      "type": "function"
    }
  ],
  "bytecode": "0x60a0604052600a60048190557f79d3d8832d904592c0bf9818b621522c988bb8b0c05cdc3b15aea1b6e8db0c159055600b80546001600160581b03191666010003000493e017905566071afd498d00006010556011805460ff60a01b191690553480156200006c57600080fd5b5060405162001483380380620014838339810160408190526200008f9162000243565b600160009081556001600160601b0319606084901b166080523390819081620000ff5760405162461bcd60e51b815260206004820152601860248201527f43616e6e6f7420736574206f776e657220746f207a65726f000000000000000060448201526064015b60405180910390fd5b600180546001600160a01b0319166001600160a01b03848116919091179091558116156200013257620001328162000196565b505050600a81905542600e8190556004546200014e91620002a1565b600f555050600780546001600160401b03909216600160a01b026001600160e01b031990921691909117732ca8e0c643bde4c2e08ab1fa0da3401adad7734d179055620002c8565b6001600160a01b038116331415620001f15760405162461bcd60e51b815260206004820152601760248201527f43616e6e6f74207472616e7366657220746f2073656c660000000000000000006044820152606401620000f6565b600280546001600160a01b0319166001600160a01b03838116918217909255600154604051919216907fed8889f560326eb138920d842192f0eb3dd22b4f139c87a2c57538e05bae127890600090a350565b6000806000606084860312156200025957600080fd5b83516001600160401b03811681146200027157600080fd5b60208501519093506001600160a01b03811681146200028f57600080fd5b80925050604084015190509250925092565b60008219821115620002c357634e487b7160e01b600052601160045260246000fd5b500190565b60805160601c611195620002ee60003960008181610628015261066a01526111956000f3fe6080604052600436106101815760003560e01c806378e97925116100d1578063a168fa891161008a578063cd38aa8711610064578063cd38aa8714610426578063dfbf53ae1461043b578063f2fde38b1461045b578063fc2a88c31461047b57610181565b8063a168fa89146103ab578063c86994b1146103fb578063c8e3f2381461041057610181565b806378e979251461030c57806379ba5097146103225780637bd3d6b9146103375780638796ba8c146103575780638da5cb5b14610377578063a035b1fe1461039557610181565b80633197cbb61161013e57806342619f661161011857806342619f66146102b457806350a3bd39146101815780635727cb59146102ca5780636bd5450a146102df57610181565b80633197cbb61461024657806335c1d3491461025c57806340dba0691461029457610181565b80630849cc991461018b5780630c3f6acf146101af57806312065fe0146101dd57806316ada547146101f05780631c36d86e146102065780631fe543e314610226575b610189610491565b005b34801561019757600080fd5b506012545b6040519081526020015b60405180910390f35b3480156101bb57600080fd5b50600b546101d090600160501b900460ff1681565b6040516101a6919061101d565b3480156101e957600080fd5b504761019c565b3480156101fc57600080fd5b5061019c60045481565b34801561021257600080fd5b50610189610221366004610f1a565b6105b9565b34801561023257600080fd5b50610189610241366004610f4c565b61061d565b34801561025257600080fd5b5061019c600f5481565b34801561026857600080fd5b5061027c610277366004610f1a565b6106a5565b6040516001600160a01b0390911681526020016101a6565b3480156102a057600080fd5b506101896102af366004610ef6565b6106cf565b3480156102c057600080fd5b5061019c600c5481565b3480156102d657600080fd5b50610189610807565b3480156102eb57600080fd5b5061019c6102fa366004610ef6565b600d6020526000908152604090205481565b34801561031857600080fd5b5061019c600e5481565b34801561032e57600080fd5b5061018961089d565b34801561034357600080fd5b50610189610352366004610f1a565b61094b565b34801561036357600080fd5b5061019c610372366004610f1a565b6109af565b34801561038357600080fd5b506001546001600160a01b031661027c565b3480156103a157600080fd5b5061019c60105481565b3480156103b757600080fd5b506103e46103c6366004610f1a565b60066020526000908152604090205460ff8082169161010090041682565b6040805192151583529015156020830152016101a6565b34801561040757600080fd5b506101896109d0565b34801561041c57600080fd5b5061019c60035481565b34801561043257600080fd5b50610189610ad7565b34801561044757600080fd5b5060115461027c906001600160a01b031681565b34801561046757600080fd5b50610189610476366004610ef6565b610af5565b34801561048757600080fd5b5061019c60095481565b601154600160a01b900460ff16156104c35760405163a5ddb20160e01b81523360048201526024015b60405180910390fd5b60105434146104ed57604051631ad24cfb60e11b81523360048201523460248201526044016104ba565b42600454600e546104fe9190611093565b10801561050e5750601254600211155b1561052e57604051633a44f6ad60e21b81524260048201526024016104ba565b6012805460018101825560009182527fbb8a6a4669ba250d26cd7a459eca9d215f8307e33aebe50379bc5a3617ec34440180546001600160a01b031916331790556010546003805491929091610585908490611093565b9091555050604051429033907f17ff06cf26b043c3dc035cf5412cea1a1de2708387010fcf4a9fb22a80d43c6990600090a3565b601154600160a01b900460ff1615600114156105ea5760405163bf9c2b9560e01b81523360048201526024016104ba565b600481905560405181907f6785282c9fda1b1010a0d5f33a0a3fce1bd183e8e4bf33ee4521c033563beae390600090a250565b336001600160a01b037f000000000000000000000000000000000000000000000000000000000000000016146106975760405163073e64fd60e21b81523360048201526001600160a01b037f00000000000000000000000000000000000000000000000000000000000000001660248201526044016104ba565b6106a18282610b06565b5050565b601281815481106106b557600080fd5b6000918252602090912001546001600160a01b0316905081565b600260005414156107225760405162461bcd60e51b815260206004820152601f60248201527f5265656e7472616e637947756172643a207265656e7472616e742063616c6c0060448201526064016104ba565b60026000908155338152600d6020526040902054610755576040516309801ff760e21b81523360048201526024016104ba565b336000908152600d60205260408082205490516001600160a01b03841691908381818185875af1925050503d80600081146107ac576040519150601f19603f3d011682016040523d82523d6000602084013e6107b1565b606091505b50509050806107ed57336000818152600d60205260409081902054905163bdddc02960e01b8152600481019290925260248201526044016104ba565b5050336000908152600d6020526040812081905560019055565b601154600160a01b900460ff1615600114156108385760405163bf9c2b9560e01b81523360048201526024016104ba565b42600e81905560045461084a91611093565b600f55601180546001600160a81b0319169055600b805460ff60501b1916600360501b17905560405142907ff556261b4ccfc0838ba2c4fc9d25fe55540fae12264f96d73e82b2ede618b14d90600090a2565b6002546001600160a01b031633146108f05760405162461bcd60e51b815260206004820152601660248201527526bab9ba10313290383937b837b9b2b21037bbb732b960511b60448201526064016104ba565b600180546001600160a01b0319808216339081179093556002805490911690556040516001600160a01b03909116919082907f8be0079c531659141344cd1fd0a4f28419497f9722a3daafe3b4186f6b6457e090600090a350565b601154600160a01b900460ff16156001141561097c5760405163bf9c2b9560e01b81523360048201526024016104ba565b601081905560405181907f68ea16a5b1315194f5b4ec6b3b84759f19b2a93da7cc8b4ba0e020ec68868cdb90600090a250565b600881815481106109bf57600080fd5b600091825260209091200154905081565b6109d8610b75565b60026000541415610a2b5760405162461bcd60e51b815260206004820152601f60248201527f5265656e7472616e637947756172643a207265656e7472616e742063616c6c0060448201526064016104ba565b6002600055601354610a5257604051632db3d08f60e01b81523360048201526024016104ba565b60135460405160009133918381818185875af1925050503d8060008114610a95576040519150601f19603f3d011682016040523d82523d6000602084013e610a9a565b606091505b5050905080610ac95760135460405163bdddc02960e01b815233600482015260248101919091526044016104ba565b506000601381905560019055565b600b805460ff60501b1916600160511b179055610af2610bca565b50565b610afd610b75565b610af281610ceb565b7ffe2e2d779dba245964d4e3ef9b994be63856fd568bf7d3ca9e224755cb1bd54d8282604051610b37929190611045565b60405180910390a160125481518290600090610b5557610b5561111e565b6020026020010151610b6791906110de565b600c8190556106a190610d96565b6001546001600160a01b03163314610bc85760405162461bcd60e51b815260206004820152601660248201527527b7363c9031b0b63630b1363290313c9037bbb732b960511b60448201526064016104ba565b565b600754600a54600b546040516305d3b1d360e41b81526004810192909252600160a01b830467ffffffffffffffff166024830152640100000000810461ffff16604483015263ffffffff808216606484015266010000000000009091041660848201526000916001600160a01b031690635d3b1d309060a401602060405180830381600087803b158015610c5d57600080fd5b505af1158015610c71573d6000803e3d6000fd5b505050506040513d601f19601f82011682018060405250810190610c959190610f33565b6009819055600b5460408051838152660100000000000090920463ffffffff1660208301529192507fcc58b13ad3eab50626c6a6300b1d139cd6ebb1688a7cced9461c2f7e762665ee910160405180910390a190565b6001600160a01b038116331415610d445760405162461bcd60e51b815260206004820152601760248201527f43616e6e6f74207472616e7366657220746f2073656c6600000000000000000060448201526064016104ba565b600280546001600160a01b0319166001600160a01b03838116918217909255600154604051919216907fed8889f560326eb138920d842192f0eb3dd22b4f139c87a2c57538e05bae127890600090a350565b60128181548110610da957610da961111e565b600091825260209091200154601180546001600160a01b0319166001600160a01b03909216919091179055600354600a90610de59060096110bf565b610def91906110ab565b6011546001600160a01b03166000908152600d602052604081208054909190610e19908490611093565b9091555050600354600a90610e2f9060016110bf565b610e3991906110ab565b60136000828254610e4a9190611093565b90915550610e5c905060126000610ec4565b6011805460ff60a01b198116600160a01b17909155600b805460ff60501b1916600360501b17905560035460405142926001600160a01b0316907f6dd0b2121dce90773c041fb342cc6821b9153f739deea4c04e0c12bfd498852290600090a4506000600355565b5080546000825590600052602060002090810190610af291905b80821115610ef25760008155600101610ede565b5090565b600060208284031215610f0857600080fd5b8135610f138161114a565b9392505050565b600060208284031215610f2c57600080fd5b5035919050565b600060208284031215610f4557600080fd5b5051919050565b60008060408385031215610f5f57600080fd5b8235915060208084013567ffffffffffffffff80821115610f7f57600080fd5b818601915086601f830112610f9357600080fd5b813581811115610fa557610fa5611134565b8060051b604051601f19603f83011681018181108582111715610fca57610fca611134565b604052828152858101935084860182860187018b1015610fe957600080fd5b600095505b8386101561100c578035855260019590950194938601938601610fee565b508096505050505050509250929050565b602081016004831061103f57634e487b7160e01b600052602160045260246000fd5b91905290565b6000604082018483526020604081850152818551808452606086019150828701935060005b818110156110865784518352938301939183019160010161106a565b5090979650505050505050565b600082198211156110a6576110a66110f2565b500190565b6000826110ba576110ba611108565b500490565b60008160001904831182151516156110d9576110d96110f2565b500290565b6000826110ed576110ed611108565b500690565b634e487b7160e01b600052601160045260246000fd5b634e487b7160e01b600052601260045260246000fd5b634e487b7160e01b600052603260045260246000fd5b634e487b7160e01b600052604160045260246000fd5b6001600160a01b0381168114610af257600080fdfea2646970667358221220d9ea152cfe5ef17717b2753e1586fc64c7292ba3078d531304f707e51acb2dfc64736f6c63430008070033",
  "linkReferences": {},
  "deployedLinkReferences": {}
}